{
  "contractName": "quenceToken",
  "abi": [
    {
      "constant": true,
      "inputs": [],
      "name": "totalSupply",
      "outputs": [
        {
          "name": "",
          "type": "uint256"
        }
      ],
      "payable": false,
      "stateMutability": "view",
      "type": "function"
    },
    {
      "inputs": [],
      "payable": false,
      "stateMutability": "nonpayable",
      "type": "constructor"
    }
  ],
  "bytecode": "0x608060405234801561001057600080fd5b50620f4240600081905550609e806100296000396000f300608060405260043610603f576000357c0100000000000000000000000000000000000000000000000000000000900463ffffffff16806318160ddd146044575b600080fd5b348015604f57600080fd5b506056606c565b6040518082815260200191505060405180910390f35b600054815600a165627a7a723058208ae12c356bea23c7171a705f0757bb17063fcf31f180dd482abcb98296c55e1b0029",
  "source": "pragma solidity ^0.4.2;\n\ncontract quenceToken{\n\t// creating constructor\n\tuint256 public totalSupply;\n\n\tfunction quenceToken () public{\n\t\ttotalSupply = 1000000;\t//\tby ERC20 standards\n\t}\n}",
  "sourcePath": "/home/aman/projects/quence/quence_sale/contracts/quenceToken.sol",
  "compiler": {
    "name": "solc",
    "version": "0.4.24+commit.e67f0147.Emscripten.clang"
  },
  "schemaVersion": "2.0.1",
  "updatedAt": "2018-10-26T18:24:37.767Z"
}