{
  "contractName": "quenceTokenSale",
  "abi": [
    {
      "constant": true,
      "inputs": [],
      "name": "tokensSold",
      "outputs": [
        {
          "name": "",
          "type": "uint256"
        }
      ],
      "payable": false,
      "stateMutability": "view",
      "type": "function"
    },
    {
      "constant": true,
      "inputs": [],
      "name": "tokenContract",
      "outputs": [
        {
          "name": "",
          "type": "address"
        }
      ],
      "payable": false,
      "stateMutability": "view",
      "type": "function"
    },
    {
      "constant": true,
      "inputs": [],
      "name": "tokenPrice",
      "outputs": [
        {
          "name": "",
          "type": "uint256"
        }
      ],
      "payable": false,
      "stateMutability": "view",
      "type": "function"
    },
    {
      "inputs": [
        {
          "name": "_tokenContract",
          "type": "address"
        },
        {
          "name": "_tokenPrice",
          "type": "uint256"
        }
      ],
      "payable": false,
      "stateMutability": "nonpayable",
      "type": "constructor"
    },
    {
      "anonymous": false,
      "inputs": [
        {
          "indexed": false,
          "name": "_buyer",
          "type": "address"
        },
        {
          "indexed": false,
          "name": "_amount",
          "type": "uint256"
        }
      ],
      "name": "Sell",
      "type": "event"
    },
    {
      "constant": false,
      "inputs": [
        {
          "name": "_numberOfTokens",
          "type": "uint256"
        }
      ],
      "name": "buyTokens",
      "outputs": [],
      "payable": true,
      "stateMutability": "payable",
      "type": "function"
    }
  ],
  "bytecode": "0x608060405234801561001057600080fd5b506040516040806104358339810180604052810190808051906020019092919080519060200190929190505050336000806101000a81548173ffffffffffffffffffffffffffffffffffffffff021916908373ffffffffffffffffffffffffffffffffffffffff16021790555081600160006101000a81548173ffffffffffffffffffffffffffffffffffffffff021916908373ffffffffffffffffffffffffffffffffffffffff16021790555080600281905550505061035f806100d66000396000f300608060405260043610610062576000357c0100000000000000000000000000000000000000000000000000000000900463ffffffff1680633610724e14610067578063518ab2a81461008757806355a373d6146100b25780637ff9b59614610109575b600080fd5b61008560048036038101908080359060200190929190505050610134565b005b34801561009357600080fd5b5061009c6102d1565b6040518082815260200191505060405180910390f35b3480156100be57600080fd5b506100c76102d7565b604051808273ffffffffffffffffffffffffffffffffffffffff1673ffffffffffffffffffffffffffffffffffffffff16815260200191505060405180910390f35b34801561011557600080fd5b5061011e6102fd565b6040518082815260200191505060405180910390f35b61014081600254610303565b3414151561014d57600080fd5b80600160009054906101000a900473ffffffffffffffffffffffffffffffffffffffff1673ffffffffffffffffffffffffffffffffffffffff166370a08231306040518263ffffffff167c0100000000000000000000000000000000000000000000000000000000028152600401808273ffffffffffffffffffffffffffffffffffffffff1673ffffffffffffffffffffffffffffffffffffffff168152602001915050602060405180830381600087803b15801561020b57600080fd5b505af115801561021f573d6000803e3d6000fd5b505050506040513d602081101561023557600080fd5b81019080805190602001909291905050501015151561025357600080fd5b806003600082825401925050819055507f5e5e995ce3133561afceaa51a9a154d5db228cd7525d34df5185582c18d3df093382604051808373ffffffffffffffffffffffffffffffffffffffff1673ffffffffffffffffffffffffffffffffffffffff1681526020018281526020019250505060405180910390a150565b60035481565b600160009054906101000a900473ffffffffffffffffffffffffffffffffffffffff1681565b60025481565b6000808214806103225750828283850292508281151561031f57fe5b04145b151561032d57600080fd5b929150505600a165627a7a72305820b7435d51fb8d60cb6bd37111e079efbc4d9e0f43b07c33d4652fa0b997c1815a0029",
  "source": "pragma solidity ^0.4.2;\n\nimport \"./quenceToken.sol\";\n\ncontract quenceTokenSale{\n\n\taddress admin;\n\tquenceToken public tokenContract;\n\tuint256 public tokenPrice;\n\tuint256 public tokensSold;\n\n\tevent Sell(address _buyer, uint256 _amount);\n\n\tfunction quenceTokenSale(quenceToken _tokenContract, uint256 _tokenPrice) public {\n\t\t\tadmin = msg.sender;\n\t\t\ttokenContract = _tokenContract;\n\t\t\ttokenPrice = _tokenPrice;\n\n\n\t}\n\n\n\tfunction mul(uint x, uint y) internal pure returns (uint z) {\n        require(y == 0 || (z = x * y) / y == x);\n    }\n\n\tfunction buyTokens( uint256 _numberOfTokens) public payable{\n\n\t\t// require value equal to tokens\n\t\trequire( msg.value == mul(_numberOfTokens, tokenPrice));\n\n\t\t// require the contract has enough no of tokens\n\t\trequire( tokenContract.balanceOf(this) >= _numberOfTokens);\n\t\t// keep track of tokens sold\n\t\t\n\t\t// trigger SELL event\n\t\ttokensSold += _numberOfTokens;\n\n\t\tSell(msg.sender, _numberOfTokens);\n\t\t\n\t\t// require transfer successful\n\t}\n\n}\n\n\n// Next is to setup up sale tokens\n",
  "sourcePath": "/home/aman/projects/quence/quence_sale/contracts/quenceTokenSale.sol",
  "compiler": {
    "name": "solc",
    "version": "0.4.24+commit.e67f0147.Emscripten.clang"
  },
  "schemaVersion": "2.0.1",
  "updatedAt": "2018-11-03T14:56:50.611Z"
}